:060000000A128A110C280F
:10000800FE00030EF0000A08F1000A128A15482FB4
:100018000A128A110F280A128A157D260A128A11D5
:10002800C1000A128A157E260A128A11C2000A1213
:100038008A11FF270A128A11FB00B201B301B40129
:10004800B501B601B701B801B901BA01BB01BC01DC
:10005800BD01BE01BF01C00183010A128A119429A2
:1000680083120313AB00103027062804031D3D2814
:100078003E285E28BD01B601B701BC01BB01BE0127
:10008800FF30AB008030F60066300A128A15202750
:100098000A128A11C030F600B5300A128A152027D4
:1000A8000A128A11D030F60045300A128A15202724
:1000B8000A128A112A30831203132B0603196528A2
:1000C8006628882823302B0603196B286C28882873
:1000D8002B0A03197028712888280130FF007F082F
:1000E800BD0704303D0203187A287B2812290A30FC
:1000F800F2003B080A128A11EA270A128A118312AF
:1001080003132B07BB0012292A302B06031D8D2849
:100118008E289128BB01BD01122923302B06031D0F
:100128009628972812290A128A159A260A128A11DD
:100138008030F60075300A128A1520270A128A11B3
:100148009030F6009F300A128A1520270A128A1169
:10015800033083120313C0001215F9289C30A6003F
:100168000A30A0000030A1000A30F2000030F3008D
:100178004008A900AA012908F4002A08F5000A1273
:100188008A1183270A128A11730883120313A300A2
:100198007208A2000A128A1198240A128A1183127C
:1001A80003132008303E0A128A15AB260A128A1158
:1001B8009D3083120313A6000A30A0000030A1006E
:1001C8004008A900AA012908A2002A08A3000A12C7
:1001D8008A1198240A128A11831203132008303EC8
:1001E8000A128A15AB260A128A11831203134008D1
:1001F800031DFF280029B2284008031D04290529EA
:1002080012290A128A159A260A128A1183120313CE
:10021800BE01BE0A0430C1000030C2000130B6077A
:100228000318B70A0030B707153036063704031D20
:100238001E291F298429B601B701BC09C930A600A7
:100248006430F2000030F3003B08A900AA01290835
:10025800F4002A08F5000A128A1183270A128A1163
:100268007208303E0A128A15AB260A128A11CA3061
:1002780083120313A6000A30A0000030A1000A3040
:10028800F2000030F3003B08A900AA012908F40095
:100298002A08F5000A128A1183270A128A1173089C
:1002A80083120313A3007208A2000A128A11982469
:1002B8000A128A11831203132008303E0A128A1583
:1002C800AB260A128A11CB3083120313A6000A3018
:1002D800A0000030A1003B08A900AA012908A2003B
:1002E8002A08A3000A128A1198240A128A11831272
:1002F80003132008303E0A128A15AB260A128A1107
:10030800831203133C0803198A298B299329C930BE
:10031800F6000E300A128A1520270A128A110800E0
:100328000A128A15BE260A128A1101300A128A1583
:10033800FD260A128A1183120313B1000230410606
:100348004204031DA829A9290D2A3103031DAD293B
:10035800AE29D7290330C1000030C2001030AF00E9
:100368000030B0000A128A159A260A128A11C03083
:10037800F60012300A128A1520270A128A114D3007
:1003880083120313AE001930AD004F30AC00AC0B34
:10039800CB29AD0BCB29AE0BCB290A128A159A268D
:1003A8000A128A11A92A02303106031DDC29DD2927
:1003B800ED290430C1000030C2000A128A159A26BD
:1003C8000A128A11103083120313AF000030B000F4
:1003D800A92A03303106031DF229F329FC29053027
:1003E800C1000030C2001030AF000030B000D12989
:1003F80004303106031D012A022A0C2A1E30C000CF
:10040800BF01071512150730C1000030C200D129FD
:10041800A92A073041064204031D132A142A482A30
:1004280004303106031D192A1A2A322A1E304002C6
:1004380003181F2A202A242A40081E3EC000A92A81
:100448001E304002031C292A2A2A0C2A0130FF00E8
:100458007F08BF074008E23EC000A92A05303106E0
:10046800031D372A382A3D2A0930C1000030C2004E
:10047800A92A06303106031D422A432A0C2A0A30CB
:10048800C1000030C200D129093041064204031DD1
:100498004E2A4F2A0C2A04303106031D542A552AA5
:1004A800A92A071512150730C1000030C200A92A71
:1004B8000A128A15B3270A128A110230831203130B
:1004C800C1000030C2000A128A159A260A128A113F
:1004D800CD2A0A128A15DC260A128A11CD2A30087A
:1004E800A8002F08A70031080A128A11E6220A126A
:1004F8008A11CD2A3008A8002F08A70031080A124F
:100508008A11E6220A128A11CD2A3008A8002F087B
:10051800A70031080A128A1134200A128A11CD2A3A
:100528000A128A11F3250A128A11CD2A071112110B
:100538000230C1000030C200CD2A07111211CD2AA5
:100548000730C1000030C200CD2A831203134208CD
:10055800003A0319B02ACD2A4108013A03195C2A46
:10056800033A03196D2A013A0319732A073A031942
:100578007E2A013A0319892A023A0319942A0F3A62
:100588000319A42A013A0319A12A033A03199A2A3A
:10059800CD2A831203133E08031DD32AD42AD92A4D
:1005A8000F30AF000030B00099293E03031DDD2A4B
:1005B800DE2A99291030AF000030B00099290A12BC
:1005C8008A110C2883120313AB00BE0110302706D2
:1005D8002804031DF02AF12A122BBA01C001BF0119
:1005E800B401B501B801B901FF30AB008030F600A5
:1005F80034300A128A1520270A128A11C030F600F0
:10060800E7300A128A1520270A128A11D030F6001C
:1006180045300A128A1520270A128A112A308312B5
:1006280003132B060319192B1A2B582B23302B06CF
:1006380003191F2B202B582B2B0A0319242B252B8E
:10064800582B0130FF007F08BA0703303A0203181D
:100658002E2B2F2B3D2B0A30F20040080A128A114C
:10066800EA270A128A11831203132B07C000B90163
:10067800822B03303A02031C422B432B822B05307A
:100688003A020318482B492B822B0A30F2003F0804
:100698000A128A11EA270A128A11831203132B07F6
:1006A800BF00B901B90A822B2A302B06031D5D2B26
:1006B8005E2B6F2B3908031D622B632B662BC00141
:1006C800BA01822B3903031D6A2B6B2B822BBF01C6
:1006D8000230BA00822B23302B06031D742B752B96
:1006E800822B0A128A159A260A128A110730831257
:1006F8000313C1000030C200071512150130B407FA
:100708000318B50A0030B5071F3034063504031D39
:100718008E2B8F2B0A2CB401B501B809C630A60060
:100728000A30F2000030F3003F08A900AA012908A6
:10073800F4002A08F5000A128A1183270A128A117E
:100748007208303E0A128A15AB260A128A11C7307F
:1007580083120313A6000A30A0000030A1003F084E
:10076800A900AA012908A2002A08A3000A128A11CE
:1007780098240A128A11831203132008303E0A12A1
:100788008A15AB260A128A11C83083120313A600F1
:100798003A300A128A15AB260A128A11C930831216
:1007A8000313A6000A30F2000030F3004008A90045
:1007B800AA012908F4002A08F5000A128A118327D9
:1007C8000A128A117208303E0A128A15AB260A12DA
:1007D8008A11CA3083120313A6000A30A000003021
:1007E800A1004008A900AA012908A2002A08A3001C
:1007F8000A128A1198240A128A11831203132008F4
:10080800303E0A128A15AB260A128A118312031384
:1008180038080319102C112C342C242CC930F6005C
:100828000F300A128A1520270A128A11342CC63072
:10083800F6000F300A128A1520270A128A11342C62
:100848003908A900AA012A08003A03192C2C342CCB
:100858002908003A0319122C013A03191B2C342CCD
:100868000800C330F700CD30F600F60B392CF70B33
:10087800392CF20133300A128A157D270A128A119F
:100888001B30F7009E30F600F60B482CF70B482C6F
:100898000000F20133300A128A157D270A128A11E4
:1008A800A630F600F60B562C0000F20133300A127F
:1008B8008A157D270A128A11612C622C0000F20128
:1008C80002300A128A157D270A128A11A630F6000C
:1008D800F60B6C2C0000F20128300A128A157D27CD
:1008E8000A128A11A630F600F60B782C0000F201E5
:1008F80001300A128A157D270A128A110430F7007E
:100908003D30F600F60B862CF70B862C8B2CF2016B
:100918000C300A128A157D270A128A11A630F600B1
:10092800F60B942C0000080083120313A501A31FE3
:100938009E2C9F2CA62CA209A309A20A0319A30A7C
:10094800A501A50AA11FA92CAA2CAF2CA009A109B1
:10095800A00A0319A10A200821040319B42CB52CF4
:10096800E42CA401A40AC32C01300310A00DA10D8E
:10097800FF3E031DB92C0130FF007F08A407A11F0B
:10098800C62CC72CB82C21082302031DCD2C200807
:100998002202031CD02CD12CD72C2008A20221081B
:1009A800031CA303A30201300310A10CA00CFF3EFB
:1009B800031DD82C0130A402031DE32CE42CC72C02
:1009C80025080319E82CE92CEE2CA209A309A20A90
:1009D8000319A30A2308A1002208A0000800831213
:1009E800031312149214FA308316031392008C1412
:1009F800831203131211080005308A000408840AC0
:100A0800820700342034203450346F34773465340E
:100A1800723469346E34673420344F344E342034A1
:100A2800203420340034203450346F347734653423
:100A3800723420343D34203439343034303457342F
:100A4800203420342034003420344D346934633465
:100A580072346F34773461347634653420344F34EB
:100A6800763465346E342034003453344534543489
:100A78002034543449344D344534203428344D34EA
:100A88004D343A3453345334293400342A343A3404
:100A980043344C34453441345234203420342334E4
:100AA8003A3445344E3454344534523400342034C6
:100AB80034342E34533474346134723474342F34EF
:100AC80052346534733475346D34653400342034ED
:100AD8005334453454342034543445344D3450342C
:100AE80028346F34433429342034003420342034FB
:100AF8005034723465342D34483465346134743478
:100B080069346E346734203400342034203454344B
:100B180069346D346534723420345534703420347B
:100B280021342134003433342E3443346F346E345A
:100B3800763465346334743469346F346E34003415
:100B4800543469346D3465342034523465346D342A
:100B58002E343D34203400342034543449344D3458
:100B6800453420343D342034203400342034543487
:100B780045344D34503420343D342034003420344E
:100B880035342E345034613475347334653400345C
:100B980032342E344734723469346C346C34003453
:100BA80031342E344D346934633472346F34003444
:100BB800203436342E34533474346F347034003463
:100BC80034342E345334743461347234743400340D
:100BD800543449344D3445342D3420340034803075
:100BE800F600AB300A128A1520270A128A118930BA
:100BF80083120313A6000A30F2000030F3003F0806
:100C0800A700A8012708F4002808F5000A128A118D
:100C180083270A128A117208303E0A128A15AB26F7
:100C28000A128A118A3083120313A6000A30A00020
:100C38000030A1003F08A700A8012708A200280843
:100C4800A3000A128A1198240A128A118312031324
:100C58002008303E0A128A15AB260A128A118B30F8
:100C680083120313A6003A300A128A15AB260A1219
:100C78008A118C3083120313A6000A30F200003068
:100C8800F3004008A700A8012708F4002808F50089
:100C98000A128A1183270A128A117208303E0A1230
:100CA8008A15AB260A128A118D3083120313A60007
:100CB8000A30A0000030A1004008A700A8012708BA
:100CC800A2002808A3000A128A1198240A128A117D
:100CD800831203132008303E0A128A15AB260A1223
:100CE8008A11C030F60056300A128A1520270A12D7
:100CF8008A119030F600BE300A128A1520270A128F
:100D08008A11D030F600D7300A128A1520270A1225
:100D18008A11831203134008031D932E942EC72EA5
:100D28003F08031D982E992EC72E0A128A159A2657
:100D38000A128A11C030F60084300A128A15202758
:100D48000A128A118312031387147F308312031344
:100D5800A900D430A8003130A700A70BB12EA80BEA
:100D6800B12EA90BB12E831203138710071112118C
:100D78000A128A159A260A128A110230831203135C
:100D8800C1000030C200080083120313881108153F
:100D9800881408146430F2000030F300FF30F207C2
:100DA8000318F30AFF30F307720A031DDF2E730AD4
:100DB800031DDF2EE02ED22E831203130618E52E14
:100DC800E62EE82E0130822F8618EB2EEC2EEE2E22
:100DD8000230822F0619F12EF22EF42E0330822FC4
:100DE80088150811881408146430F2000030F300E4
:100DF800FF30F2070318F30AFF30F3077308803A4D
:100E0800FF0080307F02031D0B2F01307202031890
:100E18000E2F0F2FFC2E831203130618142F152FD5
:100E2800172F0430822F86181A2F1B2F1D2F0530DD
:100E3800822F0619202F212F232F0630822F881565
:100E48000815881008146430F2000030F300FF30F1
:100E5800F2070318F30AFF30F3077308803AFF001C
:100E680080307F02031D3A2F0130720203183D2F94
:100E78003E2F2B2F831203130618432F442F462F80
:100E88000730822F8618492F4A2F4C2F0830822F7F
:100E980006194F2F502F522F0930822F8815081509
:100EA800881408106430F2000030F300FF30F207B5
:100EB8000318F30AFF30F3077308803AFF00803005
:100EC8007F02031D692F0130720203186C2F6D2FEA
:100ED8005A2F831203130618722F732F752F2A3077
:100EE800822F8618782F792F7B2F0030822F0619B2
:100EF8007E2F7F2F812F2330822FFF300800F701AC
:100F0800F31F872F882F8F2FF209F309F20A03198D
:100F1800F30AF701F70AF51F922F932F9C2FF40974
:100F2800F509F40A0319F50A0130FF007F08F706EE
:100F3800F801F901720873040319A32FA42FDB2FFA
:100F4800F601F60AB22F01300310F20DF30DFF3E41
:100F5800031DA82F0130FF007F08F607F31FB52FE8
:100F6800B62FA72F01300310F80DF90DFF3E031D12
:100F7800B72F73087502031DC32F72087402031C70
:100F8800C62FC72FCE2F7208F4027308031CF5036F
:100F9800F502781401300310F30CF20CFF3E031D28
:100FA800CF2F0130F602031DDA2FDB2FB62F77087B
:100FB8000319DF2FE02FE52FF809F909F80A0319BB
:100FC800F90A7908F3007808F2000800F400F30140
:100FD800741CEF2FF02FF42F7208FF007F08F3071F
:100FE8000310F20D0310F40C7408031DFC2FFD2FE1
:080FF800EC2F7308080001341E
:101CFA0001340034831603138801091189100A126A
:101D0A008A1135240A128A15080083160313060855
:101D1A00073886000808F0398800811383120313F4
:101D2A0088150815881408140800F20101300A12EF
:101D3A008A157D270A128A150430F7003D30F6000D
:101D4A00F60BA52EF70BA52EAA2E0800FA00F20113
:101D5A008312031326080A128A157D270A128A1586
:101D6A00F201F20A7A080A128A157D270A128A15DE
:101D7A0008000A128A157F260A128A150A128A157B
:101D8A008A260A128A15831603130711831203136C
:101D9A0007110A128A11F3240A128A150B178B17D4
:101DAA0083160313871083120313871008008030E9
:101DBA00F600CF300A128A1520270A128A15C03077
:101DCA00F600C7300A128A1520270A128A1590309F
:101DDA00F60092300A128A1520270A128A15D03084
:101DEA00F600DF300A128A1520270A128A1508001F
:101DFA00F4000A128A11C8260A128A15F500740814
:101E0A00031D082F092F0B2F75081F2F750A031999
:101E1A000F2F102F172F7B080319142F152F172F89
:101E2A00FB01092F750A031D1B2F1C2F1E2FFB01F7
:101E3A00FB0AFF300800F700F20176080A128A1539
:101E4A007D270A128A153B2FF201F20A77088400CD
:101E5A000A128A1100250A128A150A128A157D2782
:101E6A000A128A150130FF007F08F70777088400F5
:101E7A000A128A1100250A128A15003A031D462FF2
:101E8A00472F292F0800831203138C1C4D2F4E2F26
:101E9A00762F0130B2070318B30A0030B307E230D5
:101EAA003206043003193306031D5C2F5D2F752F8C
:101EBA00B201B30140080319632F642F672F013061
:101ECA00C002752F4008031D6B2F6C2F752F3F081A
:101EDA000319702F712F752F0130BF023B30C000DC
:101EEA008C1071088A00700E8300FE0E7E0E0900A7
:101EFA00F5007218812F852F831203130915882F75
:101F0A008312031309117508F03988008914A63061
:101F1A00F300F30B8E2F0000831203138910750848
:101F2A000F39F30003300310F30DFF3E031D982F02
:101F3A000310730D88008914A630F300F30BA32F46
:101F4A0000008312031389101B30F4009E30F30043
:101F5A00F30BAD2FF40BAD2F00000800831203130F
:101F6A00AA012A08803EA600FF300A128A15AB266B
:101F7A000A128A15831203132A08D03EA600FF30DC
:101F8A000A128A15AB260A128A15413083120313E4
:101F9A00A800ED30A700A70BD02FA80BD02FD52F64
:101FAA000130FF007F0883120313AA0710302A02A8
:101FBA00031CE02FE12FB62FC030F60001300A12C1
:101FCA008A1520270A128A159030F60023300A1241
:101FDA008A1520270A128A154D3083120313A90085
:101FEA001930A8004F30A700A70BF92FA80BF92F1B
:061FFA00A90BF92F0800FD
:02400E00FB3F76
:00000001FF
